{
  "contractName": "AdditionContract",
  "abi": [
    {
      "inputs": [
        {
          "internalType": "uint256",
          "name": "_number1",
          "type": "uint256"
        },
        {
          "internalType": "uint256",
          "name": "_number2",
          "type": "uint256"
        }
      ],
      "stateMutability": "nonpayable",
      "type": "constructor"
    },
    {
      "inputs": [],
      "name": "number1",
      "outputs": [
        {
          "internalType": "uint256",
          "name": "",
          "type": "uint256"
        }
      ],
      "stateMutability": "view",
      "type": "function",
      "constant": true
    },
    {
      "inputs": [],
      "name": "number2",
      "outputs": [
        {
          "internalType": "uint256",
          "name": "",
          "type": "uint256"
        }
      ],
      "stateMutability": "view",
      "type": "function",
      "constant": true
    },
    {
      "inputs": [
        {
          "internalType": "uint256",
          "name": "_n1",
          "type": "uint256"
        },
        {
          "internalType": "uint256",
          "name": "_n2",
          "type": "uint256"
        }
      ],
      "name": "setNumbers",
      "outputs": [],
      "stateMutability": "nonpayable",
      "type": "function"
    },
    {
      "inputs": [],
      "name": "addition1",
      "outputs": [
        {
          "internalType": "uint256",
          "name": "",
          "type": "uint256"
        }
      ],
      "stateMutability": "view",
      "type": "function",
      "constant": true
    },
    {
      "inputs": [
        {
          "internalType": "uint256",
          "name": "n1",
          "type": "uint256"
        },
        {
          "internalType": "uint256",
          "name": "n2",
          "type": "uint256"
        }
      ],
      "name": "addition2",
      "outputs": [
        {
          "internalType": "uint256",
          "name": "",
          "type": "uint256"
        }
      ],
      "stateMutability": "pure",
      "type": "function",
      "constant": true
    }
  ],
  "bytecode": "0x608060405234801561001057600080fd5b5060405161035c38038061035c83398181016040528101906100329190610082565b816000819055508060018190555050506100c2565b600080fd5b6000819050919050565b61005f8161004c565b811461006a57600080fd5b50565b60008151905061007c81610056565b92915050565b6000806040838503121561009957610098610047565b5b60006100a78582860161006d565b92505060206100b88582860161006d565b9150509250929050565b61028b806100d16000396000f3fe608060405234801561001057600080fd5b50600436106100575760003560e01c80634d3e46e41461005c57806390c524431461007a578063a378c89814610098578063c223a39e146100b4578063f1d16438146100d2575b600080fd5b610064610102565b6040516100719190610166565b60405180910390f35b610082610119565b60405161008f9190610166565b60405180910390f35b6100b260048036038101906100ad91906101b2565b61011f565b005b6100bc610131565b6040516100c99190610166565b60405180910390f35b6100ec60048036038101906100e791906101b2565b610137565b6040516100f99190610166565b60405180910390f35b60006001546000546101149190610221565b905090565b60015481565b81600081905550806001819055505050565b60005481565b600081836101459190610221565b905092915050565b6000819050919050565b6101608161014d565b82525050565b600060208201905061017b6000830184610157565b92915050565b600080fd5b61018f8161014d565b811461019a57600080fd5b50565b6000813590506101ac81610186565b92915050565b600080604083850312156101c9576101c8610181565b5b60006101d78582860161019d565b92505060206101e88582860161019d565b9150509250929050565b7f4e487b7100000000000000000000000000000000000000000000000000000000600052601160045260246000fd5b600061022c8261014d565b91506102378361014d565b925082820190508082111561024f5761024e6101f2565b5b9291505056fea26469706673582212205ed4f9b8448cbb1ac3fd4ab2c211f0440121f0687479b4f3f88a8e0e3c04915f64736f6c63430008110033",
  "immutableReferences": {},
  "source": "// SPDX-License-Identifier: MIT\npragma solidity >=0.4.22 <0.9.0;\n\ncontract AdditionContract {\n  uint public number1;\n  uint public number2;\n\n  constructor(uint _number1, uint _number2) public {\n    number1 = _number1;\n    number2 = _number2;\n  }\n\n  function setNumbers(uint _n1, uint _n2) public {\n    number1 = _n1;\n    number2 = _n2;\n}\n\n  function addition1() public view returns (uint){\n    return number1 + number2;\n  }\n\n  function addition2(uint n1, uint n2) public pure returns (uint){\n    return n1 + n2;\n  }\n\n}\n",
  "sourcePath": "C:\\Users\\HP\\Desktop\\MUS\\BlockChain\\TP\\TP3\\contracts\\AdditionContract.sol",
  "compiler": {
    "name": "solc",
    "version": "0.8.17+commit.8df45f5f.Emscripten.clang"
  },
  "schemaVersion": "3.4.16",
  "updatedAt": "2026-04-06T18:46:00.523Z",
  "networkType": "ethereum",
  "devdoc": {
    "kind": "dev",
    "methods": {},
    "version": 1
  },
  "userdoc": {
    "kind": "user",
    "methods": {},
    "version": 1
  }
}