{
  "contractName": "AdditionContract",
  "abi": [
    {
      "inputs": [
        {
          "internalType": "uint256",
          "name": "_number1",
          "type": "uint256"
        },
        {
          "internalType": "uint256",
          "name": "_number2",
          "type": "uint256"
        }
      ],
      "stateMutability": "nonpayable",
      "type": "constructor"
    },
    {
      "inputs": [],
      "name": "number1",
      "outputs": [
        {
          "internalType": "uint256",
          "name": "",
          "type": "uint256"
        }
      ],
      "stateMutability": "view",
      "type": "function",
      "constant": true
    },
    {
      "inputs": [],
      "name": "number2",
      "outputs": [
        {
          "internalType": "uint256",
          "name": "",
          "type": "uint256"
        }
      ],
      "stateMutability": "view",
      "type": "function",
      "constant": true
    },
    {
      "inputs": [],
      "name": "addition1",
      "outputs": [
        {
          "internalType": "uint256",
          "name": "",
          "type": "uint256"
        }
      ],
      "stateMutability": "view",
      "type": "function",
      "constant": true
    },
    {
      "inputs": [
        {
          "internalType": "uint256",
          "name": "n1",
          "type": "uint256"
        },
        {
          "internalType": "uint256",
          "name": "n2",
          "type": "uint256"
        }
      ],
      "name": "addition2",
      "outputs": [
        {
          "internalType": "uint256",
          "name": "",
          "type": "uint256"
        }
      ],
      "stateMutability": "pure",
      "type": "function",
      "constant": true
    }
  ],
  "bytecode": "0x608060405234801561001057600080fd5b5060405161032338038061032383398181016040528101906100329190610082565b816000819055508060018190555050506100c2565b600080fd5b6000819050919050565b61005f8161004c565b811461006a57600080fd5b50565b60008151905061007c81610056565b92915050565b6000806040838503121561009957610098610047565b5b60006100a78582860161006d565b92505060206100b88582860161006d565b9150509250929050565b610252806100d16000396000f3fe608060405234801561001057600080fd5b506004361061004c5760003560e01c80634d3e46e41461005157806390c524431461006f578063c223a39e1461008d578063f1d16438146100ab575b600080fd5b6100596100db565b604051610066919061012d565b60405180910390f35b6100776100f2565b604051610084919061012d565b60405180910390f35b6100956100f8565b6040516100a2919061012d565b60405180910390f35b6100c560048036038101906100c09190610179565b6100fe565b6040516100d2919061012d565b60405180910390f35b60006001546000546100ed91906101e8565b905090565b60015481565b60005481565b6000818361010c91906101e8565b905092915050565b6000819050919050565b61012781610114565b82525050565b6000602082019050610142600083018461011e565b92915050565b600080fd5b61015681610114565b811461016157600080fd5b50565b6000813590506101738161014d565b92915050565b600080604083850312156101905761018f610148565b5b600061019e85828601610164565b92505060206101af85828601610164565b9150509250929050565b7f4e487b7100000000000000000000000000000000000000000000000000000000600052601160045260246000fd5b60006101f382610114565b91506101fe83610114565b9250828201905080821115610216576102156101b9565b5b9291505056fea264697066735822122062896b3e652eb18ed455e46b68fc7cabf704669de36747d746ec6802ba1d610b64736f6c63430008110033",
  "immutableReferences": {},
  "source": "// SPDX-License-Identifier: MIT\npragma solidity >=0.4.22 <0.9.0;\n\ncontract AdditionContract {\n  uint public number1;\n  uint public number2;\n\n  constructor(uint _number1, uint _number2) public {\n    number1 = _number1;\n    number2 = _number2;\n  }\n\n  function addition1() public view returns (uint){\n    return number1 + number2;\n  }\n\n  function addition2(uint n1, uint n2) public pure returns (uint){\n    return n1 + n2;\n  }\n\n}\n",
  "sourcePath": "C:\\Users\\HP\\Desktop\\MUS\\BlockChain\\TP\\TP3\\contracts\\AdditionContract.sol",
  "compiler": {
    "name": "solc",
    "version": "0.8.17+commit.8df45f5f.Emscripten.clang"
  },
  "schemaVersion": "3.4.16",
  "updatedAt": "2026-04-04T18:45:33.744Z",
  "networkType": "ethereum",
  "devdoc": {
    "kind": "dev",
    "methods": {},
    "version": 1
  },
  "userdoc": {
    "kind": "user",
    "methods": {},
    "version": 1
  }
}