{
  "contractName": "ArraysContract",
  "abi": [
    {
      "inputs": [
        {
          "internalType": "uint256[]",
          "name": "_numbers",
          "type": "uint256[]"
        }
      ],
      "stateMutability": "nonpayable",
      "type": "constructor"
    },
    {
      "inputs": [
        {
          "internalType": "uint256",
          "name": "",
          "type": "uint256"
        }
      ],
      "name": "numbers",
      "outputs": [
        {
          "internalType": "uint256",
          "name": "",
          "type": "uint256"
        }
      ],
      "stateMutability": "view",
      "type": "function",
      "constant": true
    },
    {
      "inputs": [
        {
          "internalType": "uint256",
          "name": "_number",
          "type": "uint256"
        }
      ],
      "name": "addNumber",
      "outputs": [],
      "stateMutability": "nonpayable",
      "type": "function"
    },
    {
      "inputs": [
        {
          "internalType": "uint256",
          "name": "index",
          "type": "uint256"
        }
      ],
      "name": "getElement",
      "outputs": [
        {
          "internalType": "uint256",
          "name": "",
          "type": "uint256"
        }
      ],
      "stateMutability": "view",
      "type": "function",
      "constant": true
    },
    {
      "inputs": [],
      "name": "getArray",
      "outputs": [
        {
          "internalType": "uint256[]",
          "name": "",
          "type": "uint256[]"
        }
      ],
      "stateMutability": "view",
      "type": "function",
      "constant": true
    },
    {
      "inputs": [],
      "name": "sumArray",
      "outputs": [
        {
          "internalType": "uint256",
          "name": "",
          "type": "uint256"
        }
      ],
      "stateMutability": "view",
      "type": "function",
      "constant": true
    }
  ],
  "bytecode": "0x60806040523480156200001157600080fd5b50604051620008743803806200087483398181016040528101906200003791906200028c565b80600090805190602001906200004f92919062000057565b5050620002dd565b82805482825590600052602060002090810192821562000096579160200282015b828111156200009557825182559160200191906001019062000078565b5b509050620000a59190620000a9565b5090565b5b80821115620000c4576000816000905550600101620000aa565b5090565b6000604051905090565b600080fd5b600080fd5b600080fd5b6000601f19601f8301169050919050565b7f4e487b7100000000000000000000000000000000000000000000000000000000600052604160045260246000fd5b6200012c82620000e1565b810181811067ffffffffffffffff821117156200014e576200014d620000f2565b5b80604052505050565b600062000163620000c8565b905062000171828262000121565b919050565b600067ffffffffffffffff821115620001945762000193620000f2565b5b602082029050602081019050919050565b600080fd5b6000819050919050565b620001bf81620001aa565b8114620001cb57600080fd5b50565b600081519050620001df81620001b4565b92915050565b6000620001fc620001f68462000176565b62000157565b90508083825260208201905060208402830185811115620002225762000221620001a5565b5b835b818110156200024f57806200023a8882620001ce565b84526020840193505060208101905062000224565b5050509392505050565b600082601f830112620002715762000270620000dc565b5b815162000283848260208601620001e5565b91505092915050565b600060208284031215620002a557620002a4620000d2565b5b600082015167ffffffffffffffff811115620002c657620002c5620000d7565b5b620002d48482850162000259565b91505092915050565b61058780620002ed6000396000f3fe608060405234801561001057600080fd5b50600436106100575760003560e01c80633a7d22bc1461005c57806381d734231461008c578063d39fa233146100aa578063d504ea1d146100da578063fce68023146100f8575b600080fd5b610076600480360381019061007191906102c3565b610114565b60405161008391906102ff565b60405180910390f35b610094610182565b6040516100a191906102ff565b60405180910390f35b6100c460048036038101906100bf91906102c3565b6101e0565b6040516100d191906102ff565b60405180910390f35b6100e2610204565b6040516100ef91906103d8565b60405180910390f35b610112600480360381019061010d91906102c3565b61025c565b005b60008080549050821061015c576040517f08c379a000000000000000000000000000000000000000000000000000000000815260040161015390610457565b60405180910390fd5b600082815481106101705761016f610477565b5b90600052602060002001549050919050565b6000806000905060005b6000805490508110156101d857600081815481106101ad576101ac610477565b5b9060005260206000200154826101c391906104d5565b915080806101d090610509565b91505061018c565b508091505090565b600081815481106101f057600080fd5b906000526020600020016000915090505481565b6060600080548060200260200160405190810160405280929190818152602001828054801561025257602002820191906000526020600020905b81548152602001906001019080831161023e575b5050505050905090565b600081908060018154018082558091505060019003906000526020600020016000909190919091505550565b600080fd5b6000819050919050565b6102a08161028d565b81146102ab57600080fd5b50565b6000813590506102bd81610297565b92915050565b6000602082840312156102d9576102d8610288565b5b60006102e7848285016102ae565b91505092915050565b6102f98161028d565b82525050565b600060208201905061031460008301846102f0565b92915050565b600081519050919050565b600082825260208201905092915050565b6000819050602082019050919050565b61034f8161028d565b82525050565b60006103618383610346565b60208301905092915050565b6000602082019050919050565b60006103858261031a565b61038f8185610325565b935061039a83610336565b8060005b838110156103cb5781516103b28882610355565b97506103bd8361036d565b92505060018101905061039e565b5085935050505092915050565b600060208201905081810360008301526103f2818461037a565b905092915050565b600082825260208201905092915050565b7f212120496e64657820646f6573206e6f74206578697374202121000000000000600082015250565b6000610441601a836103fa565b915061044c8261040b565b602082019050919050565b6000602082019050818103600083015261047081610434565b9050919050565b7f4e487b7100000000000000000000000000000000000000000000000000000000600052603260045260246000fd5b7f4e487b7100000000000000000000000000000000000000000000000000000000600052601160045260246000fd5b60006104e08261028d565b91506104eb8361028d565b9250828201905080821115610503576105026104a6565b5b92915050565b60006105148261028d565b91507fffffffffffffffffffffffffffffffffffffffffffffffffffffffffffffffff8203610546576105456104a6565b5b60018201905091905056fea264697066735822122041e2b7dfa829320aa8997e868fb9d6676738a22a01f119b63e7be9cc9c78384864736f6c63430008110033",
  "immutableReferences": {},
  "source": "// SPDX-License-Identifier: MIT\npragma solidity >=0.4.22 <0.9.0;\n\ncontract ArraysContract {\n    uint[] public numbers;\n\n  constructor(uint[] memory _numbers) public {\n    numbers = _numbers;\n  }\n\n  function addNumber(uint _number) public {\n    numbers.push(_number);\n  }\n  function getElement(uint index) public view returns (uint) {\n    require(index < numbers.length, \"!! Index does not exist !!\");\n    return numbers[index];\n  }\n  function getArray() public view returns (uint[] memory) {\n    return numbers;\n  }\n  function sumArray() public view returns (uint) {\n    uint sum = 0;\n    for (uint i = 0; i < numbers.length; i++) {\n      sum += numbers[i];\n    }\n    return sum;\n  }\n}\n",
  "sourcePath": "C:\\Users\\HP\\Desktop\\MUS\\BlockChain\\TP\\TP3\\contracts\\ArraysContract.sol",
  "compiler": {
    "name": "solc",
    "version": "0.8.17+commit.8df45f5f.Emscripten.clang"
  },
  "schemaVersion": "3.4.16",
  "updatedAt": "2026-04-04T18:45:35.331Z",
  "networkType": "ethereum",
  "devdoc": {
    "kind": "dev",
    "methods": {},
    "version": 1
  },
  "userdoc": {
    "kind": "user",
    "methods": {},
    "version": 1
  }
}