{
  "contractName": "PaymentContract",
  "abi": [
    {
      "inputs": [
        {
          "internalType": "address",
          "name": "_recipient",
          "type": "address"
        }
      ],
      "stateMutability": "nonpayable",
      "type": "constructor"
    },
    {
      "inputs": [],
      "name": "recipient",
      "outputs": [
        {
          "internalType": "address",
          "name": "",
          "type": "address"
        }
      ],
      "stateMutability": "view",
      "type": "function",
      "constant": true
    },
    {
      "inputs": [],
      "name": "receivePayment",
      "outputs": [],
      "stateMutability": "payable",
      "type": "function",
      "payable": true
    },
    {
      "inputs": [],
      "name": "withdraw",
      "outputs": [],
      "stateMutability": "nonpayable",
      "type": "function"
    }
  ],
  "bytecode": "0x608060405234801561001057600080fd5b506040516104c33803806104c3833981810160405281019061003291906100db565b806000806101000a81548173ffffffffffffffffffffffffffffffffffffffff021916908373ffffffffffffffffffffffffffffffffffffffff16021790555050610108565b600080fd5b600073ffffffffffffffffffffffffffffffffffffffff82169050919050565b60006100a88261007d565b9050919050565b6100b88161009d565b81146100c357600080fd5b50565b6000815190506100d5816100af565b92915050565b6000602082840312156100f1576100f0610078565b5b60006100ff848285016100c6565b91505092915050565b6103ac806101176000396000f3fe6080604052600436106100345760003560e01c80633ccfd60b1461003957806366d003ac14610050578063835c19f31461007b575b600080fd5b34801561004557600080fd5b5061004e610085565b005b34801561005c57600080fd5b5061006561017c565b6040516100729190610226565b60405180910390f35b6100836101a0565b005b60008054906101000a900473ffffffffffffffffffffffffffffffffffffffff1673ffffffffffffffffffffffffffffffffffffffff163373ffffffffffffffffffffffffffffffffffffffff1614610113576040517f08c379a000000000000000000000000000000000000000000000000000000000815260040161010a906102c4565b60405180910390fd5b60008054906101000a900473ffffffffffffffffffffffffffffffffffffffff1673ffffffffffffffffffffffffffffffffffffffff166108fc479081150290604051600060405180830381858888f19350505050158015610179573d6000803e3d6000fd5b50565b60008054906101000a900473ffffffffffffffffffffffffffffffffffffffff1681565b600034116101e3576040517f08c379a00000000000000000000000000000000000000000000000000000000081526004016101da90610356565b60405180910390fd5b565b600073ffffffffffffffffffffffffffffffffffffffff82169050919050565b6000610210826101e5565b9050919050565b61022081610205565b82525050565b600060208201905061023b6000830184610217565b92915050565b600082825260208201905092915050565b7f2121212121212121212120526563697069656e74206164647265737320696e6360008201527f6f72726563742021212121212121212121000000000000000000000000000000602082015250565b60006102ae603183610241565b91506102b982610252565b604082019050919050565b600060208201905081810360008301526102dd816102a1565b9050919050565b7f2121212121212121212120596f752073686f756c642073656e64206d6f72652060008201527f7468616e20302057656920212121212121212121210000000000000000000000602082015250565b6000610340603583610241565b915061034b826102e4565b604082019050919050565b6000602082019050818103600083015261036f81610333565b905091905056fea26469706673582212205632c11bc82e7c05038c2fd724694a2fba33918bf0db8c5e8fe44a9c949d489c64736f6c63430008110033",
  "immutableReferences": {},
  "source": "// SPDX-License-Identifier: MIT\npragma solidity >=0.4.22 <0.9.0;\n\ncontract PaymentContract {\n  address public recipient;\n\n  constructor(address _recipient) public {\n    recipient = _recipient;\n  }\n\n  function receivePayment() public payable {\n    require(msg.value > 0, \"!!!!!!!!!! You should send more than 0 Wei !!!!!!!!!!\");\n  }\n  function withdraw() public {\n    require(msg.sender == recipient, \"!!!!!!!!!! Recipient address incorrect !!!!!!!!!!\");\n    payable(recipient).transfer(address(this).balance);\n  }\n}\n",
  "sourcePath": "C:\\Users\\HP\\Desktop\\MUS\\BlockChain\\TP\\TP3\\contracts\\PaymentContract.sol",
  "compiler": {
    "name": "solc",
    "version": "0.8.17+commit.8df45f5f.Emscripten.clang"
  },
  "schemaVersion": "3.4.16",
  "updatedAt": "2026-04-04T18:45:35.906Z",
  "networkType": "ethereum",
  "devdoc": {
    "kind": "dev",
    "methods": {},
    "version": 1
  },
  "userdoc": {
    "kind": "user",
    "methods": {},
    "version": 1
  }
}