{
  "contractName": "PositifNumberContract",
  "abi": [
    {
      "inputs": [
        {
          "internalType": "int256",
          "name": "number",
          "type": "int256"
        }
      ],
      "name": "estPositif",
      "outputs": [
        {
          "internalType": "bool",
          "name": "",
          "type": "bool"
        }
      ],
      "stateMutability": "pure",
      "type": "function",
      "constant": true
    }
  ],
  "bytecode": "0x608060405234801561001057600080fd5b5061012a806100206000396000f3fe6080604052348015600f57600080fd5b506004361060285760003560e01c8063fa046abd14602d575b600080fd5b60436004803603810190603f9190609a565b6057565b604051604e919060db565b60405180910390f35b6000808212159050919050565b600080fd5b6000819050919050565b607a816069565b8114608457600080fd5b50565b6000813590506094816073565b92915050565b60006020828403121560ad5760ac6064565b5b600060b9848285016087565b91505092915050565b60008115159050919050565b60d58160c2565b82525050565b600060208201905060ee600083018460ce565b9291505056fea2646970667358221220f85dbf34321e3e6ce74bc7b307409930f682465e295f585782ccc38748f594da64736f6c63430008110033",
  "immutableReferences": {},
  "source": "// SPDX-License-Identifier: MIT\npragma solidity >=0.4.22 <0.9.0;\n\ncontract PositifNumberContract {\n  function estPositif(int number) public pure returns (bool) {\n    return number >= 0;\n  }\n}\n",
  "sourcePath": "C:\\Users\\HP\\Desktop\\MUS\\BlockChain\\TP\\TP3\\contracts\\PositifNumberContract.sol",
  "compiler": {
    "name": "solc",
    "version": "0.8.17+commit.8df45f5f.Emscripten.clang"
  },
  "schemaVersion": "3.4.16",
  "updatedAt": "2026-04-04T18:45:34.607Z",
  "networkType": "ethereum",
  "devdoc": {
    "kind": "dev",
    "methods": {},
    "version": 1
  },
  "userdoc": {
    "kind": "user",
    "methods": {},
    "version": 1
  }
}