{
  "contractName": "RectangleContract",
  "abi": [
    {
      "inputs": [
        {
          "internalType": "uint256",
          "name": "_x",
          "type": "uint256"
        },
        {
          "internalType": "uint256",
          "name": "_y",
          "type": "uint256"
        },
        {
          "internalType": "uint256",
          "name": "_lo",
          "type": "uint256"
        },
        {
          "internalType": "uint256",
          "name": "_la",
          "type": "uint256"
        }
      ],
      "stateMutability": "nonpayable",
      "type": "constructor"
    },
    {
      "inputs": [],
      "name": "afficheXY",
      "outputs": [
        {
          "internalType": "uint256",
          "name": "",
          "type": "uint256"
        },
        {
          "internalType": "uint256",
          "name": "",
          "type": "uint256"
        }
      ],
      "stateMutability": "view",
      "type": "function",
      "constant": true
    },
    {
      "inputs": [
        {
          "internalType": "uint256",
          "name": "dx",
          "type": "uint256"
        },
        {
          "internalType": "uint256",
          "name": "dy",
          "type": "uint256"
        }
      ],
      "name": "deplacerForme",
      "outputs": [],
      "stateMutability": "nonpayable",
      "type": "function"
    },
    {
      "inputs": [],
      "name": "la",
      "outputs": [
        {
          "internalType": "uint256",
          "name": "",
          "type": "uint256"
        }
      ],
      "stateMutability": "view",
      "type": "function",
      "constant": true
    },
    {
      "inputs": [],
      "name": "lo",
      "outputs": [
        {
          "internalType": "uint256",
          "name": "",
          "type": "uint256"
        }
      ],
      "stateMutability": "view",
      "type": "function",
      "constant": true
    },
    {
      "inputs": [],
      "name": "x",
      "outputs": [
        {
          "internalType": "uint256",
          "name": "",
          "type": "uint256"
        }
      ],
      "stateMutability": "view",
      "type": "function",
      "constant": true
    },
    {
      "inputs": [],
      "name": "y",
      "outputs": [
        {
          "internalType": "uint256",
          "name": "",
          "type": "uint256"
        }
      ],
      "stateMutability": "view",
      "type": "function",
      "constant": true
    },
    {
      "inputs": [],
      "name": "surface",
      "outputs": [
        {
          "internalType": "uint256",
          "name": "",
          "type": "uint256"
        }
      ],
      "stateMutability": "view",
      "type": "function",
      "constant": true
    },
    {
      "inputs": [],
      "name": "afficheInfos",
      "outputs": [
        {
          "internalType": "string",
          "name": "",
          "type": "string"
        }
      ],
      "stateMutability": "pure",
      "type": "function",
      "constant": true
    },
    {
      "inputs": [],
      "name": "afficheLoLa",
      "outputs": [
        {
          "internalType": "uint256",
          "name": "",
          "type": "uint256"
        },
        {
          "internalType": "uint256",
          "name": "",
          "type": "uint256"
        }
      ],
      "stateMutability": "view",
      "type": "function",
      "constant": true
    }
  ],
  "bytecode": "0x608060405234801561001057600080fd5b5060405161057938038061057983398181016040528101906100329190610096565b8383816000819055508060018190555050508160028190555080600381905550505050506100fd565b600080fd5b6000819050919050565b61007381610060565b811461007e57600080fd5b50565b6000815190506100908161006a565b92915050565b600080600080608085870312156100b0576100af61005b565b5b60006100be87828801610081565b94505060206100cf87828801610081565b93505060406100e087828801610081565b92505060606100f187828801610081565b91505092959194509250565b61046d8061010c6000396000f3fe608060405234801561001057600080fd5b50600436106100935760003560e01c806390c33c3f1161006657806390c33c3f146101115780639361c2321461012f578063a56dfe4a1461014b578063cd514e4014610169578063cfa8d7a41461018857610093565b80630c55699c146100985780630e94ba83146100b65780637780c14f146100d457806383a443a6146100f2575b600080fd5b6100a06101a6565b6040516100ad919061025f565b60405180910390f35b6100be6101ac565b6040516100cb919061025f565b60405180910390f35b6100dc6101c3565b6040516100e9919061025f565b60405180910390f35b6100fa6101c9565b60405161010892919061027a565b60405180910390f35b6101196101da565b604051610126919061025f565b60405180910390f35b610149600480360381019061014491906102d4565b6101e0565b005b6101536101f2565b604051610160919061025f565b60405180910390f35b6101716101f8565b60405161017f92919061027a565b60405180910390f35b610190610209565b60405161019d91906103a4565b60405180910390f35b60005481565b60006003546002546101be91906103f5565b905090565b60025481565b600080600254600354915091509091565b60035481565b81600081905550806001819055505050565b60015481565b600080600054600154915091509091565b60606040518060400160405280601181526020017f4a6520737569732052656374616e676c65000000000000000000000000000000815250905090565b6000819050919050565b61025981610246565b82525050565b60006020820190506102746000830184610250565b92915050565b600060408201905061028f6000830185610250565b61029c6020830184610250565b9392505050565b600080fd5b6102b181610246565b81146102bc57600080fd5b50565b6000813590506102ce816102a8565b92915050565b600080604083850312156102eb576102ea6102a3565b5b60006102f9858286016102bf565b925050602061030a858286016102bf565b9150509250929050565b600081519050919050565b600082825260208201905092915050565b60005b8381101561034e578082015181840152602081019050610333565b60008484015250505050565b6000601f19601f8301169050919050565b600061037682610314565b610380818561031f565b9350610390818560208601610330565b6103998161035a565b840191505092915050565b600060208201905081810360008301526103be818461036b565b905092915050565b7f4e487b7100000000000000000000000000000000000000000000000000000000600052601160045260246000fd5b600061040082610246565b915061040b83610246565b925082820261041981610246565b915082820484148315176104305761042f6103c6565b5b509291505056fea26469706673582212206c470afbc8ccf6db02de34e2c2296cf4fd42df94a4fb06b5e2c93b9a159ba48664736f6c63430008110033",
  "immutableReferences": {},
  "source": "// SPDX-License-Identifier: MIT\npragma solidity >=0.4.22 <0.9.0;\n\nimport \"./FormeContract.sol\";\n\ncontract RectangleContract is FormeContract{\n  uint public lo;\n  uint public la;\n\n  constructor(uint _x, uint _y, uint _lo, uint _la) FormeContract(_x, _y)public {\n    lo = _lo;\n    la = _la;\n  }\n\n  function surface() public override view returns (uint) {\n    return lo * la;\n  }\n  function afficheInfos() public override pure returns (string memory) {\n    return \"Je suis Rectangle\";\n  }\n  function afficheLoLa() public view returns (uint, uint) {\n    return (lo, la);\n  }\n}\n",
  "sourcePath": "C:\\Users\\HP\\Desktop\\MUS\\BlockChain\\TP\\TP3\\contracts\\RectangleContract.sol",
  "compiler": {
    "name": "solc",
    "version": "0.8.17+commit.8df45f5f.Emscripten.clang"
  },
  "schemaVersion": "3.4.16",
  "updatedAt": "2026-04-06T18:46:01.464Z",
  "networkType": "ethereum",
  "devdoc": {
    "kind": "dev",
    "methods": {},
    "version": 1
  },
  "userdoc": {
    "kind": "user",
    "methods": {},
    "version": 1
  }
}